:020000040800F2
:1000000020280020450100084F3000082B2D000853
:100010004D300008AD150008E5360008000000006E
:10002000000000000000000000000000773200081F
:10003000AF1500080000000051300008C932000868
:100040005F0100085F0100085F0100085F01000810
:100050005F0100085F0100085F0100085F01000800
:100060005F0100085F0100085F0100085F010008F0
:100070005F0100085F0100085F0100085F010008E0
:100080005F0100085F0100085F0100085F010008D0
:100090005F0100085F0100085F0100085F010008C0
:1000A0005F0100087D3300085F0100085F01000860
:1000B0005F0100085F0100085F0100085F010008A0
:1000C0005F0100085F0100085F0100085F01000890
:1000D0005F010008CD360008D93600085F0100082E
:1000E0005F010008553000085F0100085F0100084B
:1000F0005F0100085F0100085F0100085F01000860
:100100005F0100085F0100085F0100085F0100084F
:100110005F0100085F0100085F01000889330008E3
:100120005F0100085F0100085F0100085F0100082F
:10013000DFF80CD000F0AAFF00480047C5560008C1
:10014000202800200648804706480047FEE7FEE7D3
:10015000FEE7FEE7FEE7FEE7FEE7FEE7FEE7FEE777
:100160003533000831010008202A04DB203A21FA47
:1001700002F00021704721FA02F3D040C2F12002C0
:100180009140084319467047A0F16101192900D830
:100190002038704740EA01039B0703D009E008C9F3
:1001A000121F08C0042AFAD203E011F8013B00F83C
:1001B000013B521EF9D27047D2B201E000F8012B88
:1001C000491EFBD270470022F6E710B513460A46D7
:1001D00004461946FFF7F0FF204610BD421E12F8F4
:1001E000013F002BFBD111F8013B02F8013B002B32
:1001F000F9D1704730B505462A460B4612F8010B77
:1002000013F8014B08B1A042F8D01CB1002802D06D
:100210006D1CF1E7284630BD421C10F8011B002977
:10022000FBD1801A704730B504460020034600E039
:100230005B1C934203D2E05CCD5C401BF8D030BD28
:1002400030B505460020034600E05B1C934205D212
:10025000EC5CC85C201A01D1002CF6D130BD000046
:1002600070B50F4D00B92868002412E00A4602E07C
:100270009E4203D0521C1378002BF9D1DAB22243EC
:1002800005D02BB124B1002100F8011B04E0044685
:10029000401C0678002EE9D12860204670BD000081
:1002A0004400002010B54843044603F099FA0028A2
:1002B00005D00021002C02D0641E0155FAE710BDC4
:1002C00000B58DB0099000920B904FF0FF300A906E
:1002D00000200C9004480690044807906A4609A83C
:1002E00000F030FC0DB000BD610B00087F0B000872
:1002F0000FB400B58DB010A909900B9000914FF08C
:10030000FF300A9000200C900548069005480790A1
:100310006A4609A80F9900F015FC0DB05DF814FBB2
:10032000610B00087F0B00082DE9FF5F1D464FF0B1
:10033000FF3BD5E9014691465F464FF00008A969A9
:100340007F1C01988847296A824688470028F6D191
:10035000BAF1FF3F0CD024F4C064002E19DD600612
:1003600014D5BAF12B0F09D0BAF12D0F0ED103E03D
:10037000584604B0BDE8F09F44F48064A9697F1C2E
:1003800001988847761E8246002E02DDBAF1300FB2
:1003900003D0B9F1000F26D032E0A969761E44F4EB
:1003A00000747F1C019888478246002E05DDBAF153
:1003B000780F06D0BAF1580F03D0B9F1000F10D062
:1003C0001EE0B9F1000F02D0B9F1100F18D1A969E0
:1003D000761E24F400747F1C019888478246102002
:1003E00002E0082000E00A20814609E008FB090835
:1003F000A969761E44F400747F1C019888478246E0
:10040000002E05DD4946504600F02DF90028EDDAB2
:10041000E96901988847A00502D46FF00100A8E7B8
:10042000E00725D1600613D5600502D5C8F10000AC
:1004300000E0404629680A1D2A600968220501D5A6
:10044000087015E0220701D5088011E008600FE070
:100450002868011D29600068210502D580F8008008
:1004600006E0210702D5A0F8008001E0C0F8008076
:1004700038467EE72DE9FF5FD2E901A74FF000087B
:10048000916999461446DDF838B046460198884788
:10049000054659EA0B0005D009E0A169761C0198D0
:1004A00088470546216A284688470028F5D1681CF8
:1004B00003D05FEACA7005D015E04FF0FF3004B0FA
:1004C000BDE8F09F2068011D2160D0F800800AE09F
:1004D0005FEACA7001D108F8015BA169761C7F1E32
:1004E000019888470546002F1ADD681C18D0B9F11D
:1004F000000F0DD0E81705EBD060421120F01F006F
:1005000059F822102A1A012090400142E0D107E058
:10051000BBF1000FDCD1216A284688470028D7D0DC
:10052000E16901988847BBF1000F07D1002E05DD76
:100530005FEACA7002D1002188F80010A068B842B2
:1005400003DDBBF1000F03D017B16FF00100B6E778
:100550003046B4E770B5064603F010F90468054666
:100560000A220021304600F069FB2C6070BD00F0CB
:10057000004220F00040C10DC0F3160040F400001E
:100580007F2901DA00207047962903DCC1F196012A
:10059000C84001E096398840002AF4D040427047B4
:1005A00001F0004330B421F0004150EA010206D0CE
:1005B0000A0DA2F56072C1F31301002A02DC30BCFF
:1005C00000207047440F44EAC104C100E01830BC69
:1005D00000EBC25000F06ABB30B50B46014600206C
:1005E0002022012409E021FA02F59D4205D303FAF5
:1005F00002F5491B04FA02F52844151EA2F1010276
:10060000F1DC30BD2DE9F05F0546002092469B46A7
:1006100088460646814640241BE028464146474618
:100620002246FFF7A1FD53465A46C01A914110D306
:1006300011461846224600F03BFD2D1A67EB0108D3
:100640004F4622460120002100F032FD17EB000941
:100650004E41201EA4F10104DFDC484631462A4603
:100660004346BDE8F09F3A2800D2303820F02002FF
:10067000412A01D3A2F13700884201D34FF0FF3065
:1006800070472DE9FF4F1C4681B00021D4E9016776
:1006900091464FF0FF358A468846A1696D1C029845
:1006A0008847216A834688470028F6D1BBF1FF3F7F
:1006B0000CD026F4C066002F1ADD700615D5BBF1EC
:1006C0002B0F0AD0BBF12D0F0FD104E04FF0FF30FC
:1006D00005B0BDE8F08F46F48066A1696D1C0298F4
:1006E00088477F1E8346002F02DDBBF1300F03D009
:1006F000B9F1000F2AD025E0A1696D1C46F40076FF
:100700007F1E029888478346002F05DDBBF1780FD6
:1007100006D0BBF1580F03D0B9F1000F10D011E093
:10072000B9F1000F02D0B9F1100F0BD1A1696D1C06
:1007300026F400767F1E029888478346102000E04A
:10074000082081464FEAE970009017E00A20F8E798
:100750004346AAFB092803FB0980DDF800C07F1E81
:100760000AFB0C0112EB0B0A41EBEB78A16946F492
:10077000007605F10105029888478346002F06DDC3
:1007800049465846FFF76FFF5FEA000BE0D5E16985
:1007900002988847B00502D46FF0010098E7F0078F
:1007A00018D1700610D57005514605D50023D1EB40
:1007B000030163EB080200E042462068031D23604A
:1007C0000068C0E9001205E02068011D2160006892
:1007D000C0E900A828467BE72DE9FF4F087883B0E1
:1007E0009946FF2805D0491C2D2804D0002400205C
:1007F00008E000200BE00124F9E700EB800003EBA8
:100800004000491C0B78FF2BF7D104B14042002374
:100810000293147819461D462D2C01D02B2C04D19F
:10082000521C2D2C13D000240294AA461478FF2CBD
:100830000FD00A25A3FB057801FB05814FF0000CC2
:1008400003FB0C11521CE3194AEB0101EEE70124F2
:10085000EAE7814453EA010002D019F5C87F06DABD
:1008600003980021C0E9001107B0BDE8F08F002512
:10087000AE4E2F46DFF8B882184600F08BFECDE969
:100880000001B9F1000002DAC9F1000400E00446F9
:100890000023A74A1AEB030B42EB045A12E0E007CD
:1008A00007D02A4633463846414600F0DDFA07466F
:1008B00088462A4633461046194600F0D5FA0546C2
:1008C0000E466410002CEAD1DDE90001B9F1000FF9
:1008D0005A46534606DA00F039FB3A46434600F0E2
:1008E00035FB05E000F0C0FA3A46434600F0BCFA9A
:1008F000029A0AB181F00041039AC2E90001B3E70C
:100900002DE9FF4F1F468DB0D7E901464FF0FF3864
:100910002E2045464FF000090B90B9696D1C0E98CA
:100920008847396A824688470028F6D1BAF1FF3FE6
:100930000AD024F4D064002E11DDBAF12B0F08D0B8
:10094000BAF12D0F0BD102E0404611B08DE744F40F
:100950008064B9696D1C0E9888478246761E694688
:10096000600501D52D2000E02B208DF8000001F15D
:10097000010B0DF1200809E0B9696D1C0E9888473C
:1009800082460F9844F40074761E0560002E02DD46
:10099000BAF1300FF0D00B998A453ED144F0800473
:1009A00006E00F99681CA9F1010944F4007408607D
:1009B000B9696D1C761E0E98884782463028F0D0A3
:1009C0002BE00B998A4505D1200603D444F080041E
:1009D000761E18E0504603F009F808B30DF1130134
:1009E000761E44F400748B4508D2AAF130000BF84F
:1009F000010B200607D5A9F1010003E0200602D46F
:100A000009F101008146A00502D50F99681C086014
:100A1000B9696D1C0E9888478246002ED1DC53E0E0
:100A2000002E51DDBAF1650F02D0BAF1450F4BD15E
:100A3000A00549D5B9696D1C24F44074761E0E9842
:100A400088478246002E0CDD2B2804D0BAF12D0FEA
:100A500007D144F48074B9696D1C0E9888478246AA
:100A6000761EE00501D52D2100E02B2108F8011BA1
:100A7000CDF82C8021E00DF12901761E44F400749C
:100A800088450CD2AAF1300010F0FF0088F8000071
:100A900002D10B99884509D908F1010806E0E00563
:100AA00001D5244801E042F20F708146B9696D1CFE
:100AB0000E98884782460F980560002E04DD504648
:100AC00002F094FF0028D6D1F9690E988847FF20DC
:100AD0008BF8000088F800000020069007904B4635
:100AE0006A4608A906A8FFF777FEA00502D46FF0B2
:100AF00001002AE714F0240F0AD0E00714D1DDE941
:100B000006123868031D3B600068C0E900120BE064
:100B1000DDE90601FFF744FD0146E00704D138682E
:100B2000021D3A600068016028460EE7000014408C
:100B30000000F03FF1D8FFFF026811441378016014
:100B400018467047D160044951610449116200217F
:100B50001161114600F0DCBA390B0008FD100008E5
:100B6000426842B1016811F8013B23B1521EC0E94D
:100B70000012184670470121C160881E7047426804
:100B80005AB1C368016843B983688B4205D0491ED6
:100B9000521CC0E90012002070474FF0FF30704730
:100BA0000FB4002300B589B00CA900910B996FF028
:100BB0000042CB601E4B06931E4B07930423CDE9E6
:100BC00001321D4A089202466B460020FFF798FE4C
:100BD00009B05DF814FB70B586B006464FF0FF30E3
:100BE0000091CDE90101002015460C4604903246E3
:100BF000694604A8FFF7D4FF02460498211825B1DE
:100C000008B1084600E020462860049800280DD06E
:100C1000002A02DD0098884208D0081B0094CDE924
:100C200001043246694604A8FFF7BAFF06B070BD5A
:100C3000610B00087F0B0008FD1000082DE9F0474C
:100C400091460F4680460446002614F8015B2DB1FC
:100C500000F050FA0068405DC007F6D12B2D02D09D
:100C60002D2D18D0641E4A463946204600F0E6FB7A
:100C700027B13968A14201D1C7F8008071054FF052
:100C800002040BD54042002803DD02F077FD04602A
:100C9000A007BDE8F08746F48066E4E70028F8DAAC
:100CA00002F06CFD04606FF00040F2E70029A8BF7D
:100CB0007047401C490008BF20F00100704710B485
:100CC000B0FA80FC00FA0CF050EA010404BF10BC3A
:100CD000704749B1CCF1200421FA04F411FA0CF167
:100CE00018BF012121430843A3EB0C01CB1D4FEAA0
:100CF00000614FEA102042BF002010BC704700EB9B
:100D0000C35010440029A4BF10BC7047401C4900C8
:100D100008BF20F0010010BC70472DE9FE4F80464F
:100D200081EA0300C00F0C46009021F0004123F03F
:100D30000045B8EB0200A94105D240462146904645
:100D40001C460B46024623F00040104347D0270DB7
:100D5000C7F30A00C3F30A510290401A01904028D9
:100D60006BDAC3F3130040F4801B0098924620B165
:100D70000023D2EB030A63EB0B0B01985946C0F139
:100D80004002504600F094F906460D46504659463A
:100D9000019A00F09CF910EB08006141002487EAF9
:100DA000115284EAE7731A4340D0009A62B3019A61
:100DB000012A4FEA075215DC001B61EB02014FF0DC
:100DC000004202EA0752CDE90042001C41F58011C1
:100DD00032462B4600F090FB03B0BDE8F08F404652
:100DE0002146F9E7001B61EB0201001C41F580136D
:100DF00000185B412018A2F5001747EB030140EAF9
:100E0000D570B6196D4111E06D084FEA360645EA16
:100E1000C0754FEA0752001B61EB0201001C41F54F
:100E2000801149084FEA30000019514132462B46E3
:100E300003B0BDE8F04F00F050BB00980122400025
:100E40000023D0EB020263EBE073009821464FEAE7
:100E5000E074B8EB000061EB0401E9E783F00043C4
:100E60005BE781F0004158E72DE9FE4F81EA03047A
:100E700004F0004421F0004100944FF0000B23F0F7
:100E8000004350EA01045ED052EA03045BD0C3F38E
:100E90000A54C1F30A552C44A4F2F3340194A0FB84
:100EA0000254C1F3130141F48011C3F3130343F45B
:100EB000801301FB024400FB034E840A970A44EAB4
:100EC000815447EA8357A4FB076802958D0A05FB06
:100ED00007854FEA932C04FB0C542705029D4FEA2B
:100EE000065847EA1637B5EB08056EEB070C870E78
:100EF000920E47EA811742EA8312A7FB0201B6EB82
:100F00000B0164EB00042B0D43EA0C335E1844EB39
:100F10001C50DA465146E7FB0201C5F313044FEAC1
:100F20000B3343EA14534FEA0432019C43EA0603AD
:100F3000A4F10C040294009CCDE900B400F0DCFAAA
:100F400003B0BDE8F08F00200146F9E72DE9F04D30
:100F500081EA030404F0004B21F0004514464FF0F1
:100F6000000A23F0004150EA050220D054EA0102B1
:100F70001DD0C5F30A570246C5F31303C1F313008E
:100F8000C1F30A5640F4801543F48013A7EB06081A
:100F9000101BD64608F2FD3873EB050002D308F1AA
:100FA000010801E092185B41B8F1000F03DA00205C
:100FB0000146BDE8F08D00204FF4801106468446BE
:100FC0000EE0171B73EB050705D3121B63EB05033C
:100FD00006434CEA010C49084FEA300092185B4185
:100FE00050EA0107EDD152EA030012D082EA040070
:100FF00083EA0501084305D0101BAB4106D201224C
:10100000002306E000224FF0004302E06FF00102EF
:1010100053101AEB06004CEB085110EB0A0041EBA1
:101020000B01BDE8F04D00F058BAC1F30A52C1F30C
:10103000130140F2FF3341F480119A4202DA00209A
:101040000146704740F233439A42A2F2334202DC37
:101050005242FFF789B800F02BB8000030B5041EEB
:1010600071F1000404DB4FF00044404264EB0101E5
:10107000141E73F1000405DB1C464FF0004352427E
:1010800063EB0403994208BF904230BD064C074D04
:1010900006E0E06840F0010394E807009847103448
:1010A000AC42F6D3FFF748F84066000860660008D7
:1010B000202A04DB203A00FA02F100207047914018
:1010C000C2F1200320FA03F3194390407047202A0D
:1010D00006DBCB17203A41FA02F043EAE07306E060
:1010E00041FA02F3D040C2F1200291400843194670
:1010F00070470000004870477465000810B504464A
:10110000FFF7F8FF0068005D00F0010010BD00006F
:101110002DE9F34F8BB04FF0000801F10C000C46A5
:101120004FF0010B46460DF1080A0190626901215A
:1011300001989047051E2DD0252D2CD0216A884777
:10114000C0B16269012101989047216A884700284F
:10115000F7D1411E62690198904700E0761CA169B1
:101160000B988847216A88470028F7D1E1690B98D6
:101170008847DBE7A1690B9888470746A84201D159
:10118000761CD3E7E1690B9888477F1C02D1B8F140
:10119000000F6FD046E1002762693D46394601984D
:1011A00090472A2804D162690121019890470125BE
:1011B000DFF884926269012101989047A0F1300123
:1011C0000A290AD24F45E5DC07EB870100EB41070E
:1011D000303FDFD445F01005ECE7E90601D46FF0AD
:1011E00000476C280AD04C2814D0682815D06A28EB
:1011F0000DD074281CD07A281AD01DE06269012114
:10120000019890476C2802D045F0040514E045F0A1
:1012100002050DE045F020050AE062690121019810
:101220009047682802D045F0080505E045F40065C0
:101230006269012101989047C4E9015765283DD0B2
:1012400019DC58287AD00CDC452837D004DC252856
:1012500026D0412831D131E046282FD047282CD143
:101260002CE05B2877D0612828D063287CD06428C4
:1012700023D15AE0D0E06F2848D008DC66281DD082
:1012800067281BD0692821D06E2816D127E0702846
:1012900045D0732868D0752847D078280DD14DE007
:1012A000A1690B988847054625283FF469AFE16995
:1012B0000B9888476D1C3FF46AAFB3E023466A463B
:1012C0006FF001000B99FFF71BFB9EE045F040001B
:1012D0006060A80723464FF0000236D43EE0E807DE
:1012E0007FF447AF2068011D21600068290501D502
:1012F00006701BE7290701D5068017E7A90703D564
:10130000F117C0E9006111E706600FE745F0400002
:101310006060A80723464FF0080216D41EE040F68E
:101320000E0125EA0100606016E045F040006060B3
:10133000A80723464FF00A0207D40FE045F040000B
:101340006060A80708D5234610226FF001000B99B2
:10135000FFF797F959E007E0234610226FF00100EC
:101360000B99FEF7E1FF50E04FF000094F464B4666
:10137000632802D05B2806D040E0E80601D40120B3
:10138000A06001273AE062690121019890475E2838
:1013900005D14FF0010962694946019890472169DA
:1013A00039B900210A46534643F82120491C08292F
:1013B000FADBB0B3216969B9C11700EBD1625311EF
:1013C0000AEB830122F01F02821A01200B68904071
:1013D00003430B6062690121019890475D28E8D1C1
:1013E000B9F1000F09D00020514651F82020D24316
:1013F00041F82020401C0828F7DB02AB224600976A
:101400006FF001000B99FFF735F800280CDA401C4B
:1014100008D1BBF1000F05D04FF0FF300DB0BDE893
:10142000F08FFFE74046F9E7E90701D108F101082D
:1014300006444FF0000B79E6CCCCCC0C2DE9F05FE4
:1014400082460078002715468B460AF10104B9460A
:10145000302801D09DB113E014F8010B0127782842
:1014600003D0582801D045B10AE00DB1102D07D1A5
:101470000027102514F8010B02E0082500E00A25DA
:101480000026B0460EE005FB080005FB06F101272B
:1014900001EB10461FFA80F8B6F5803F00D3B9463D
:1014A00014F8010B2946FFF7DEF80028EBDABBF150
:1014B000000F05D00FB1641E00E05446CBF8004089
:1014C000B9F1000F06D002F059F902210160C81EDF
:1014D000BDE8F09F48EA0640FAE710B5141E73F124
:1014E000000408DA401C41F1000192185B411A43E4
:1014F00001D120F0010010BD2DE9F04D92469B4630
:1015000011B1B1FA81F202E0B0FA80F220329046D5
:10151000FFF7CEFD04460F4640EA0A0041EA0B0100
:1015200053465A46084313D0114653EA010019D0D6
:10153000C8F140025046FEF717FE05460E465046DB
:1015400059464246FFF7B4FD084305D0012004E0A8
:1015500020463946BDE8F08D0020054346EAE07696
:101560002C4337430A986305E40AA0EB08000022E5
:10157000FD0A44EA47540A3002D500200146E9E753
:10158000010510196941DDE9084500196941BDE807
:10159000F04DA2E70EB540F2334202920022CDE9AF
:1015A00000221346FFF7A8FF03B000BDFEE7704717
:1015B000704700002DE9F05F90F821100024022907
:1015C00003D004218163012485E001680A6822F0C8
:1015D0000E020A6001680A6822F001020A603F4EAA
:1015E0003E4FB215DFF8F4C0DFF8F090DFF8ECA062
:1015F000DFF8E8B0DFF8E4E00168783F1301150296
:10160000ACF1640CA9F15009AAF13C0AABF1280B2A
:10161000AEF1140E4FF48018B14227D9B9420ED062
:10162000614512D049451DD0514518D0594518D0B3
:10163000714501D1424615E0294EB14201D1012246
:1016400010E0274E1436B14201D110220AE0244E98
:101650002836B14206D0224A3C32914201D11A4684
:1016600000E02A461E49091F0A602BE0B94213D048
:10167000614517D0494522D051451DD059451DD04F
:10168000714501D142461AE0B14202D14FF0807259
:1016900015E0134EB14201D1012210E0104E143674
:1016A000B14201D110220AE00D4E2836B14206D0D7
:1016B0000B4A3C32914201D11A4600E02A460749C2
:1016C00080394A60012180F82110002180F8201023
:1016D000416B01B188472046BDE8F09F8000024081
:1016E0000804024070B5044600F016F90546601C77
:1016F00002D004480078044400F00EF9401BA042D8
:10170000FAD370BD340000202DE9F84FDFF8C891FE
:10171000002409F1040A0AF1040B23460F270BF1F8
:10172000040ED1E00125A54006EA0502AA4276D1C1
:10173000DFF8A8C14E68A6EB0C0866452BD00DDC7F
:10174000032E34D005DC36B3012E19D0022E2FD152
:101750001BE0112E16D0122E2AD119E0B8F5881FE1
:1017600019D006DCB8F5803F15D0B8F5801F1FD121
:1017700011E0B8F5001F0ED0B8F5041F18D10AE02B
:10178000CB6815E0CB681B1D12E0CB6808330FE077
:10179000CB680C330CE08B682BB1012B4FF00803A6
:1017A00003D0456104E0042302E0056100E000236A
:1017B000FF2A01D8064601E000F104064FEA84053D
:1017C00001D9A5F12005D6F8008007FA05FC28EA22
:1017D0000C0803FA05F548EA0508C6F800804D68CC
:1017E000ED0070D53E4DAE6946F00106AE61AD69C3
:1017F00024F0030605F0010500953A4D06EB050CB3
:10180000DCF80850A607360F07FA06F825EA08059F
:10181000DFF8D480404503D14FF0000825E052E0C6
:10182000DFF8C880404502D14FF001081DE0DFF825
:10183000C080404502D14FF0020816E0DFF8B480C6
:10184000404502D14FF003080FE0DFF8AC8040457F
:1018500002D14FF0040808E0DFF8A080404502D133
:101860004FF0050801E04FF0060808FA06F848EACC
:101870000508CCF808804D68D9F80060ED034D46A6
:1018800001D5164300E096432E604D68DAF80060FB
:10189000AD03554601D5164300E096432E604D68D2
:1018A000DBF80060ED025D4601D5164300E096438B
:1018B0002E604D68DEF80060AD02754601D5164316
:1018C00000E096432E60641C0A681646E2407FF4EE
:1018D00029AFBDE8F88F000000040140000011109E
:1018E000001002400000014000080140000C0140CF
:1018F000001001400014014000180140001C01408C
:10190000C2680A4201D041617047016170470AB163
:10191000016170470904FBE70148806870470000D7
:1019200034000020024881680278114481607047C9
:1019300034000020074810B5016841F01001016033
:10194000032000F073F8002000F006F800F024F8FF
:10195000002010BD0020024070B50D4D04464FF42C
:101960007A712878B1FBF0F00A490968B1FBF0F010
:1019700000F033FE48B9102C07D200222146501E39
:1019800000F034F800206C6070BD012070BD0000D4
:1019900034000020400000200B4808B5816941F068
:1019A00001018161816901F001010091C16941F08A
:1019B0008051C161C06900F08050009003484168C7
:1019C00021F0E061416008BD0010024000000140CC
:1019D000002809DB00F01F0201219140400980002E
:1019E00000F1E020C0F8001170470000F0B40E4B89
:1019F0001B680C46C3F30223C3F10705042D00D96D
:101A00000425191D072901D2002300E0DB1E012651
:101A100006FA05F1491E214099409E40761E164067
:101A20003143F0BC01F09ABE0CED00E0064900F035
:101A3000070208684FF6FF03184040EA0220034AF5
:101A400010430860704700000CED00E00000FA054C
:101A500090FAA0F0044AB0FA80F002EB8000002176
:101A6000C0F880107047000000000E4201490120BC
:101A70000862704700000E420548016841F002010B
:101A800001600448016841F00401016030BF704703
:101A90000070004010ED00E010B52CA401461DCCF4
:101AA00086B08DE81D002DA02D4C0068049000200C
:101AB00004292FD00BDC01292FD0022928D100F0D6
:101AC00071F96168C1F38131491C49001EE00829A0
:101AD00020D010291CD161682268D20118D5C1F329
:101AE0008342C9031DF8020009D5616804AAC1F345
:101AF0004041515C1B4AB2FBF1F1484301E01A49F5
:101B000048436168490203D440000321B0FBF1F06F
:101B100006B010BD00F056F9FAE7226AC2F30121BF
:101B2000012903D1920701D5C803F1E7022905D1A4
:101B3000626A920702D549F64040E9E70329E7D1F6
:101B400021688903E4D54FF22440E1E7020304054C
:101B5000060708090A0B0C0D0E0F101001020000F9
:101B60000010024000127A0000093D002DE9F84300
:101B700005460078354CC00754D0E0690026C00007
:101B800008D4E06940F08050E061E069012600F08F
:101B9000805000902E480168C90512D40168804623
:101BA00041F480710160FFF7B7FE074605E000BF12
:101BB000FFF7B2FEC01B642823D8D8F80000C00588
:101BC000F6D5206A10F4407021D0A98801F4407144
:101BD00081421CD0206A1F49012220F440700A6013
:101BE00000220A602062C00711D0FFF795FE074669
:101BF00041F2883808E000BFFFF78EFEC11B414567
:101C000002D90320BDE8F883206A8007F4D5206A52
:101C1000696820F44070084320621EB1E06920F03A
:101C20008050E0612878800705D56068A96820F4B5
:101C30004040084360602878C00605D5606869693F
:101C400020F48000084360600020DBE700100240C1
:101C500000700040400442422DE9F0470F46050065
:101C600061D0434E306800F00700B84209D23068B6
:101C700020F0070038433060306800F00700B842B9
:101C800051D128683B4C810712D5400703D56068C5
:101C900040F4E06060602878000703D5606840F495
:101CA000605060606068A96820F0F00008436060E0
:101CB0002878C00728D06868012810D02168022839
:101CC00010D0890700292EDA616821F00301014351
:101CD0006160FFF721FE804641F288390DE02168FE
:101CE0008903EFE78901EDE7FFF716FEA0EB080196
:101CF000494502D90320BDE8F0876068696800F0B3
:101D00000C00B0EB810FEFD1306800F00700B84253
:101D10000BD9306820F0070038433060306800F09D
:101D20000700B84201D00120E5E72878400705D533
:101D30006068E96820F4E060084360602878000784
:101D400006D56068296920F4605040EAC1006060EF
:101D500000F038F86168084AC1F30311515CC840CB
:101D60000649086006480068FFF7F6FD0020C2E754
:101D70000020024000100240DB6400084000002008
:101D8000380000200448054900684968044AC1F346
:101D90000221515CC8407047400000200010024002
:101DA000EB6400080448054900684968044AC1F327
:101DB000C221515CC8407047400000200010024022
:101DC000EB64000812A185B00FC98DE80F0014A0C4
:101DD000144A006804905168134801F00C03042B66
:101DE00010D0082B0ED1C1F38343C9031DF80300A3
:101DF0000AD5516804AAC1F34041515C0A4A5043D4
:101E0000B0FBF1F005B0704708494843FAE700001D
:101E100002030405060708090A0B0C0D0E0F10102B
:101E2000010200000010024000127A0000093D008B
:101E30002DE9F84F040070D02078C04DC00749D07C
:101E40006868C0F38100012807D06868C0F381008A
:101E5000022809D16868C00306D52868800339D5EF
:101E600060680028E7D035E06068B0F5803F0BD0AF
:101E700010B1B0F5A02F11D0286820F48030286070
:101E8000286820F4802002E0286840F48030286030
:101E9000606890B1FFF740FD06460AE0286840F40C
:101EA00080202860F0E700BFFFF736FD801B642824
:101EB00073D828688003F7D50CE0FFF72DFD0646A0
:101EC00005E000BFFFF728FD801B6428F0D82868D4
:101ED0008003F7D420789A4E80074FF001094FF025
:101EE000000839D5686810F00C0F07D06868C0F397
:101EF0008100022809D16868C00306D428688007D9
:101F000014D52069012808D110E02069B0B1C6F8C5
:101F10000090FFF701FD074605E00AE1FFF7FCFC32
:101F2000C01B0228C4D828688007F7D528686169D3
:101F300020F0F80040EAC10028600DE0C6F80080FB
:101F4000FFF7EAFC074604E0FFF7E6FCC01B0228A7
:101F500023D828688007F7D4207800072CD5794843
:101F6000A169D9B1C0F80090FFF7D6FC074604E09C
:101F7000FFF7D2FCC01B02280FD8686A8007F7D58C
:101F800071484FF4FA510068B0FBF1F0009000BFC7
:101F90000098411E0091FAD20EE080E0C0F8008067
:101FA000FFF7BAFC074604E0FFF7B6FCC01B0228A7
:101FB00075D8686A8007F7D42078400760D5E8694B
:101FC0000027C00008D4E86940F08050E861E86963
:101FD000012700F0805000905C480168C90513D4C7
:101FE0000168834641F480710160FFF795FC8246E9
:101FF00006E000BFFFF790FCA0EB0A0064284ED873
:10200000DBF80000C005F5D5E06801280AD008B16A
:10201000052813D0286A20F001002862286A20F0E1
:10202000040002E0286A40F001002862E06841F202
:10203000883B98B1FFF770FC82460BE0286A40F0BD
:1020400004002862EEE700BFFFF766FCA0EB0A0180
:1020500059455AD8286A8007F6D50CE0FFF75CFC92
:10206000824605E0FFF758FCA0EB0A0159454CD821
:10207000286A8007F6D41FB1E86920F08050E86133
:10208000E06988B36968C1F38101022944D002285C
:10209000C6F8608004D0FFF73FFC044638E034E027
:1020A000FFF73AFC074604E0FFF736FCC01B0228A6
:1020B0002BD828688001F7D4206AB0F5803F05D17D
:1020C0006868A16820F4003008436860D4E908011A
:1020D0000843696821F4741108436860C6F8609089
:1020E000FFF71AFC044606E025E000BFFFF714FCEA
:1020F000001B022809D828688001F7D51BE000BF23
:10210000FFF70AFC001B022802D90320BDE8F88F64
:1021100028688001F4D40EE00128F7D06868226AAC
:1021200000F48031914204D1616A00F47010884259
:1021300001D00120EAE70020E8E70000001002409B
:1021400000004242800442424000002000700040F3
:102150007047000010B5044600680168890709D57A
:102160004068800706D52046FFF7F2FF21686FF030
:102170000200486003494FF4003008600120607499
:1021800010BD0000140401402DE9F04791460C46B3
:102190005FEA00084AD084B3D8F8000040684007DE
:1021A00044D4404601F004F84FF461620546B0FBA8
:1021B000F2F1B0FBF2F302FB13503C23B0FBF3F05F
:1021C000B5FBF2F6607002FB1650B0FBF3F203FBB6
:1021D0001200A070182931D31820B1FBF0F7B1FB21
:1021E000F0F200FB12102070404600F0DAFF411CB4
:1021F00004D0A84202D9461B02E017E04FF0FF3698
:10220000A7EB071000EB4000C0EB001005EBC0157A
:102210002946404601F01BF840B9701C01D07119E5
:1022200000E03146404600F0FEFF10B10120BDE85D
:10223000F0873946404600F027FF00E02170B9F1F1
:10224000000F0BD0207800F014FF2070607800F0B1
:1022500010FF6070A07800F00CFFA0700020E6E78F
:1022600070B5040003D0607C002610B105E00120A9
:1022700070BD2674204600F043F8022060742046AA
:1022800000F08EF9042578BB204600F054FF58BBBF
:102290002068416821F007014160A06820B117481B
:1022A000016821F0010101601448001F0168A26863
:1022B00021F46071114301606068411C04D1012068
:1022C000FFF7EAFB80B1401E21688A6822F00F0206
:1022D00042EA10428A602168CA6860F30F02CA604D
:1022E000204600F043FF08B16574C0E7E6730120A3
:1022F0006073A0736074002070BD0000306C0040FB
:1023000008B500680D49884217D1FFF7AFFB0C48AC
:10231000C16941F00061C161C0690A4900F0006013
:10232000009001200860002211462920FFF75EFB83
:10233000BDE808402920FFF74BBB08BD002800403E
:10234000001002403C0442422DE9F8434FF00006E1
:1023500017460D46040000960FD075B1207C012869
:102360000ED04FF0010984F8109002206074002212
:1023700069462046FFF708FF20B10120BDE8F88339
:102380000220FBE79DF800004FF4616148439DF88F
:102390000110C1EB011100EB81009DF8021000EB70
:1023A00001082878E7B100F05BFE4FF4616100FBA3
:1023B00001F7687800F054FEC0EB001007EB8007CF
:1023C000A87800F04DFE3918414501D21648014465
:1023D000204600F028FF70B1042060742674CCE71A
:1023E0004FF4616148436978C1EB011100EB810052
:1023F000A9780144E8E721686FF00200486020688E
:10240000016841F0020101600848016841F40031AF
:10241000016006480830016841F40031016084F829
:10242000119026740020A9E78051010000040140AA
:102430002DE9F0410D4604003BD0C5B3207C0128B6
:102440003AD04FF0010884F8108002206074E878D8
:1024500072B300F005FEE073687800F001FE60736F
:10246000A87800F0FDFDA073C2B2617BE07B00F0B4
:10247000AFFE20732870204600F09AFE4FF4616191
:10248000B0FBF1F1002518292DD91822B1FBF2F18A
:10249000A1EB011101EB4101C1EB011100EBC116F0
:1024A0003146204600F0D3FE0427C8B90BE000E017
:1024B00004E00120BDE8F0810220FBE7E0736878CA
:1024C0006073A878CFE7204600F06BFE411C0AD06D
:1024D000B04208D206490144204600F0A4FE10B1E3
:1024E00067742574E5E784F8118025740020E1E71E
:1024F000805101002DE9F0410D46040024D01DB3A8
:10250000207C012823D04FF0010884F8108002209D
:1025100060742878EAB100F0A3FD4FF4616100FB1C
:1025200001F6687800F09CFDC0EB001006EB800619
:10253000A87800F095FD35182946204600F087FE62
:102540000026042710BB0FE00120BDE8F081022027
:10255000FBE74FF4616148436978C1EB011100EB7F
:102560008100A9784518E7E72068416821F0050156
:102570004160204600F015FE411C0AD0A84208D256
:1025800006490144204600F04EFE10B167742674DF
:10259000DAE784F8118026740020D6E78051010024
:1025A00070B504000AD02068416821F0080141603C
:1025B000FFF7B2F905464FF47A7608E0012070BDC6
:1025C000FFF7AAF9401BB04201D9032070BD206873
:1025D00040680007F4D5002070BD10B5401EB0F172
:1025E000807F01D3012010BD4FF0E02460610F21F6
:1025F000601701F0B3F80020A061072020610020DF
:1026000010BD7047704770B590F83C20012A19D072
:10261000012400F83C4F0222427050F83C3C5A68BA
:102620009D6822F070060A684968324325F08005EB
:1026300029435A6050F83C2C91604470002101708D
:10264000084670BD022070BD10B5040003D094F898
:102650003D0010B107E0012010BD002084F83C00CF
:10266000204600F00DF8022084F83D00211D20686E
:1026700000F090FE012084F83D00002010BD000015
:1026800008B5154A0168154891420ED1816941F497
:10269000006181618069002200F4006000901146B1
:1026A0001920FFF7A3F9192010E00D4A914211D12A
:1026B000C16941F02001C161C069002200F0200021
:1026C000009011463720FFF791F93720BDE8084008
:1026D000FFF77EB908BD0000002C01400010024049
:1026E000001400400168CA6842F00102CA60006834
:1026F000816801F00701062903D0016841F001015A
:102700000160002070470168CA6822F00102CA60B7
:102710000068016A41F21112114207D1016A921058
:10272000114203D1016821F00101016000207047CE
:1027300070B5044690F83C00012817D0012584F8B4
:102740003C50022084F83D002068826822F0770225
:1027500022F47F4282600868502830D00DDC2028A7
:102760004DD005DC98B310283BD148E0022070BD65
:10277000302844D0402834D139E0602828D070284F
:1027800006D0B0F5805F2CD0B0F5005F29D10AE00B
:10279000CB68D1E90121206800F042FE2068816801
:1027A00041F0770109E0CB68D1E90121206800F010
:1027B00037FE2068816841F48041816011E0CA6879
:1027C0004968206800F03EFE5021206807E016E0CE
:1027D000CA684968206800F046FE6021206800F061
:1027E00029FE84F83D50002084F83C0070BDCA6882
:1027F0004968206800F026FE40212068EFE7226843
:1028000001461046EBE7704770B504460068016961
:102810004FF00005C943890715D4C168C94389072A
:1028200011D4E91E016101202077206880698007AA
:10283000204602D0FFF7E7FF04E000F098F82046BA
:1028400000F096F8257720680169C943490717D435
:10285000C168C943490713D46FF004010161022024
:1028600020772068806910F4407F204602D0FFF76F
:10287000CAFF04E000F07BF8204600F079F82577E5
:1028800020680169C943090716D4C168C94309070B
:1028900012D46FF008010161042020772068C0691C
:1028A0008007204602D0FFF7AEFF04E000F05FF89B
:1028B000204600F05DF8257720680169C943C90604
:1028C00017D4C168C943C90613D46FF01001016160
:1028D000082020772068C06910F4407F204602D08D
:1028E000FFF791FF04E000F042F8204600F040F8C6
:1028F000257720680169C943C90708D1C168C94360
:10290000C90704D1891E0161204600F033F8206810
:102910000169C943090609D4C168C943090605D438
:102920006FF0800101612046FFF76BFE20680169AE
:10293000C943490609D4C168C943490605D46FF0A3
:1029400040010161204600F039F820680169C9435F
:1029500089060BD4C168C943890607D46FF02001EA
:1029600001612046BDE87040FFF74CBE70BD704766
:10297000704700000D4910B5884206D103F04AFAAD
:10298000BDE810400948FFF7BEBE094988420BD197
:1029900020210848FEF7B4FF0749C878421CCA70D6
:1029A0000F2801D90120087110BD00005C1B002018
:1029B0001C1B0020001801402400002070477047B5
:1029C00070B5026804461068D168536910F00F0FA3
:1029D00050D003F0010501F4907635435DD0C20775
:1029E00005D0CA0503D5E26B42F00102E26342075B
:1029F00005D5DA0703D0E26B42F00202E2638207F8
:102A000005D5DA0703D0E26B42F00402E263020765
:102A100005D5DA0703D0E26B42F00802E263E26B0D
:102A2000002A33D0800604D5880602D5204600F05F
:102A300042FD20684069E16BC0F38010090700D4B3
:102A400028B3204600F029FD2068416949061AD5BF
:102A5000416921F040014161606BA0B11B494163B4
:102A6000606BFEF7A7FD002810D0606B416BBDE8DE
:102A700070400847830610D58B060ED52046BDE86A
:102A8000704000F018BD2046FFF799FF70BD20464A
:102A9000FFF795FF0020E06370BD030606D50B0627
:102AA00004D52046BDE8704000F0ACBD4006F3D52B
:102AB0004806F1D5D168204621F04001D16020219F
:102AC00084F8391000F030F970BD00008B34000834
:102AD00070B5040004D094F83900002510B106E068
:102AE000012070BD84F83850204600F023F82420DF
:102AF00084F839002068C16821F40051C160204683
:102B000000F024FD2068016921F4904101612068F2
:102B1000416921F02A0141612068C16841F40051F6
:102B2000C160E563202084F8390084F83A00002071
:102B300070BD000070B586B000240094019402942A
:102B400003942E4E03682E49022003222D4DB342DA
:102B500026D18B6943F480438B618B6903F48043F6
:102B600004938B6943F004038B618969039201F03C
:102B7000040104910102CDE9001069462846FEF7E0
:102B8000C3FD2815CDE90004694628460294FEF7E6
:102B9000BBFD002211462520FEF728FF252028E056
:102BA000194EB34227D1CB6943F40033CB61CB69D3
:102BB00003F4003304938B6943F004038B61896948
:102BC000039201F0040104910421CDE9001069464B
:102BD0002846FEF799FD0820CDE9000469462846FD
:102BE0000294FEF791FD002211462620FEF7FEFE1C
:102BF0002620FEF7EDFE06B070BD00000038014053
:102C000000100240000801400044004090F83A30B3
:102C1000202B01D002207047C9B1C2B181628285E8
:102C2000C2850021C163222180F83A100168CA6878
:102C300042F48072CA6001684A6942F001024A6146
:102C40000068C16841F02001C16000207047012088
:102C50007047000010B50068074988420AD1012278
:102C600006490748FFF7D2FF04480078BDE8104046
:102C700002F0BEBF10BD0000004400402C00002048
:102C8000DC1B00202DE9F843044690F839001F466C
:102C900016460D46202802D00220BDE8F8835DB11B
:102CA00056B10020E063212084F83900FEF734FE9D
:102CB000A6848046E68425E00120EEE7E08C401EF5
:102CC000E084A0684346B0F5805F4FF000024FF00B
:102CD00080012046009703D000F0C5FCE8B90DE064
:102CE00000F0C1FCC8B928882168C0F3080048601A
:102CF000206908B16D1C05E0AD1C03E0216815F8E2
:102D0000010B4860E08C0028D8D1434600224021C6
:102D10002046009700F0A7FC08B10320BDE7202063
:102D200084F839000020B8E77047FEE770B500234B
:102D3000302611E0CC5C06EB141504F00F0430349F
:102D4000392D00D9ED1D392C00D9E41D00F81350A0
:102D500000EB43055B1C6C709342EBDB70BD000025
:102D60002DE9F04786B000254C4800950195029565
:102D70000395816941F040018161816901F0400161
:102D80000491816941F010018161816901F01001B4
:102D90000491816941F080018161816901F08001C4
:102DA0000491816941F004018161816901F00401AC
:102DB0000491816941F008018161816901F0080194
:102DC0000491816941F480718161816901F48071AC
:102DD0000491816941F0200181618069304E00F0E9
:102DE00020000490002220213046FEF790FDDFF8FD
:102DF000B4A04EF22009002249465046FEF787FD56
:102E00004FF6DF700324CDE9000469463046FEF733
:102E10007BFC202001274FF00208CDE90007CDE917
:102E2000025869463046FEF76FFC43F6FF70CDE965
:102E3000000469461C48FEF767FC4FF6FF76CDE9B3
:102E4000006469461948FEF75FFC41F6F310CDE9CE
:102E5000000469461648FEF757FC41F6C770CDE9F5
:102E6000000469465046FEF74FFCCDE90064694610
:102E70001048FEF749FCCDF80090CDF80C80CDE964
:102E8000017569465046FEF73FFCCDE9006469468E
:102E90000948FEF739FC06B0BDE8F0870010024093
:102EA00000180140000C014000100140001C0140CE
:102EB0000008014000200140001401401CB500241E
:102EC00019480194174900940160611EC0E901147A
:102ED000FFF7C6F908B1FEF76BFB8DF804408DF8DB
:102EE00005408DF80640012201A90F48FFF702FBBB
:102EF00008B1FEF75DFB05208DF8000009208DF874
:102F0000010018208DF8020020208DF80300012216
:102F100069460548FFF78CFA002801D0FEF748FB08
:102F20001CBD000000280040081B002010B586B022
:102F300000241848009401940294039404941449C2
:102F40000594016048F69F41C0E9011440F2CF7139
:102F5000C0E9031444618461FFF776FB08B1FEF712
:102F600027FB4FF48050009069460A48FFF7E0FBCA
:102F700008B1FEF71DFB049404A906480594FFF769
:102F800042FB002801D0FEF713FB06B010BD000085
:102F9000002C01401C1B00201CB500240E4800948E
:102FA0000C490194016041F61F41C0E901146321FD
:102FB0008461C160FFF748FB08B1FEF7F9FA00949D
:102FC000694605480194FFF71EFB002801D0FEF773
:102FD000EFFA1CBD001400405C1B00200C4810B52B
:102FE0000A4901604FF4E1314160002181600C2207
:102FF000C160C0E904128161C161FFF769FD002869
:1030000003D0BDE81040FEF7D3BA10BD0038014030
:103010009C1B00200C4810B50A4901604FF4165162
:103020004160002181600C22C160C0E9041281610D
:10303000C161FFF74DFD002803D0BDE81040FEF749
:10304000B7BA10BD00440040DC1B0020FEE770470B
:10305000704700000148FFF77DB80000081B002002
:10306000010901EB810100F00F0000EB4100C0B24B
:103070007047002102E00A38C0B2491C0A28FAD27F
:10308000090740EA116070472DE9F0410446002528
:10309000C07B627BA37B42E0012A16D0032A14D0B6
:1030A000052A12D0072A10D0082A0ED00A2A0CD0DE
:1030B0000C2A0AD0042A10D0062A0ED0092A0CD0D5
:1030C0000B2A0AD0022A0DD028E01F2B0CD30C2A81
:1030D00005D101221346401C20E01E2B04D30123FE
:1030E000521C1BE01C2B02D203F1010316E011D18C
:1030F00083B29E0710D16426B3FBF6F706FB1736A2
:1031000036B94FF4C876B3FBF6F706FB17331BB995
:103110001D2303E01D2B01D1032201236D1C8D42D1
:10312000BAD3D1B2E0736173DAB2A27300F050F88F
:103130002073BDE8F08170B50446FEF7EDFB05464F
:103140004FF47A7606E0FEF7E7FB401BB04201D968
:10315000032070BD206840688006F4D5206841686F
:1031600041F010014160002070BD000070B50446C0
:103170000068416821F010014160FEF7CDFB054673
:103180004FF47A7607E000BFFEF7C6FB401BB04263
:1031900001D9032070BD206840688006F4D5002066
:1031A00070BD0168086A496A89B241EA0040704707
:1031B000006881698AB2C1698BB2816989B28A4229
:1031C00003D0C06961F31F40704743EA0240704773
:1031D000F0B56424C1EBC1030927A500072603EB62
:1031E00001130329B3FBF7F100F5FA601144014420
:1031F0000AD2401EB0FBF4F201EB9001B0FBF5F0F7
:10320000891A0844001D08E0B0FBF4F201EB9001BC
:10321000B0FBF5F0891A0844801CB0FBF6F106FB00
:103220001100C0B2F0BD70B50D4606460024FFF790
:1032300082FF48B93168280C08623168A8B2486238
:103240003046FFF793FF00B10124204670BD70B5F2
:103250000D4606460024FFF76EFF48B93168280C7A
:1032600088613168A8B2C8613046FFF77FFF00B1BE
:103270000124204670BD70472DE9F04717460E46E1
:10328000814600241CE000BF06EB440116F8140040
:1032900091F80180FCF778FF3038C5B2092D01D9CB
:1032A000ED1FEDB24046FCF76FFF3038C0B2092881
:1032B00001D9C01FC0B200EB051009F80400641C5E
:1032C000BC42E1DBBDE8F087FEF72CBB70B596B0E1
:1032D00028216846FCF777FF14210AA8FCF773FF42
:1032E00018210FA8FCF76FFF0520009001A94FF4EB
:1032F00080300024012581E8310002260495CDE9C3
:1033000007604FF4E01009906846FEF791FD0F202A
:10331000CDE90A06A802CDE90C4002210AA80E94C4
:10332000FEF79AFC2802CDE90F500FA8FEF71EFC0D
:1033300016B070BD0D48016841F00101016041689F
:103340000B4A1140416001680A4A1140016001685E
:1033500021F480210160416821F4FE0141604FF4B5
:103360001F0181600449C0030860704700100240DB
:103370000000FFF8FFFFF6FE08ED00E00148FFF750
:1033800043BA00001C1B00200148FFF73DBA0000B3
:103390005C1B0020F0B502681C4B1D4D1D4E1E4FDE
:1033A0001E4C4FF0804C984209D0A04207D0604597
:1033B00005D0A84203D0B04201D0B84204D122F0D7
:1033C000700E4A6842EA0E02984209D0A04207D025
:1033D000604505D0A84203D0B04201D0B84203D125
:1033E00022F44075CA682A434D6922F080022A43BC
:1033F00002608A68C2620A688262984201D0A04272
:1034000001D10969016301214161F0BD002C014036
:103410000004004000080040000C0040003401405F
:1034200010B5846842EA032224F47F440A4322430D
:10343000826010BD826822F070020A4342F00701E8
:103440008160704710B5036A046A24F001040462C5
:10345000846924F0F00444EA021423F00A020A43C7
:103460008461026210BD10B5036A23F01003036289
:103470008369046A23F4704343EA023224F0A00310
:1034800043EA01118261016210BD10B5406A00215A
:10349000C185C184FFF793FA10BD0168CA6822F4A0
:1034A0009072CA6001684A6922F001024A612021D3
:1034B00080F83A10704710B590F83A10222901D0E0
:1034C000022010BD8168B1F5805F11D0016900292B
:1034D00001681FD0496801F07F03816A4A1C82623B
:1034E0000B70C18D491E0904090CC18518D02BE051
:1034F0000269816A002A0268526805D0D2B20A8045
:10350000816A491C8162ECE7C2F308020A80816A81
:10351000891CF7E74A68816A4B1C83620A70E0E7FE
:103520000168CA6822F02002CA600168CA6822F4F1
:103530008072CA6001684A6922F001024A61202152
:1035400080F83A10FFF786FB002010BD2DE9F0410E
:10355000044600680169E26821F4405111430161A9
:103560002169A0680843616908432168CA6841F27B
:103570000C639A430243CA6020684169A26921F43E
:103580004071114341611E492068642532268842FA
:1035900002D1FEF707FC01E0FEF7F4FB00EBC001EF
:1035A00001EB001160686FF018078000B1FBF0F2CA
:1035B000B2FBF5F2B1FBF0F37A4303EB8202B1FB0D
:1035C000F0F306EB0212B2FBF5F2B3FBF5F302F0F7
:1035D000F00202EB0312B1FBF0F3B1FBF0F0B0FB31
:1035E000F5F0784303EB800006EB0010B0FBF5F03C
:1035F000216800F00F0010448860BDE8F0810000F1
:103600000038014090F83910212901D0022070477C
:103610008168B1F5805F016A0BD04A1C02620268C2
:1036200009785160C18C491E0904090CC1840ED06F
:1036300017E009880268C1F3080151600169002997
:10364000016A02D0491C0162ECE7891CFBE70168B2
:10365000CA6822F08002CA600068C16841F0400177
:10366000C160002070472DE9F041984617460E468C
:103670000446069D1DE0681C1BD02DB1FEF74CF9D9
:10368000A0EB0800A84214D92068C16821F4D071C9
:10369000C1602068416921F001014161202084F866
:1036A000390084F83A00002084F838000320BDE88F
:1036B000F0812068006836EA000004D00020B8429B
:1036C000D9D00020F3E70120F9E700000148FFF717
:1036D00077B900009C1B00200148FFF771B900007A
:1036E000DC1B0020FEE700000FB4054B10B503A95A
:1036F000044A029800F082F910BC5DF814FB000047
:1037000035550008480000200FB4084B10B504A937
:1037100002AA039800F072F9044602A9002000F002
:103720000FFD204610BC5DF814FB0000414100086D
:103730007CB5044600201D46164600290BD0491EC4
:10374000CDE90041044B6A462946304600F056F95F
:10375000009A002111707CBD2B4100080907090E59
:10376000002804DB00F1E02080F80014704700F02E
:103770000F0000F1E02080F8141D704700487047EA
:103780005400002030B528B1144C031F00202168DC
:103790000A4605E0084630BD9A4203D810465268F2
:1037A000002AF9D1002800D041680BD00468A3EBAF
:1037B0000005A54204D11B681C440346046002E0D6
:1037C000436000E023603AB11C68D51AA54203D1DA
:1037D00015682C441C6052685A6030BD4C000020B3
:1037E0002DE9F04782460F4C10480D4E0E4F001B3E
:1037F0004FF0000820F007054FF0010900221146A4
:10380000504601F037FF002802D1306810B1002087
:10381000BDE8F0873C60C4E90058C6F80090EDE7C9
:1038200050000020241C00204C00002020200020FC
:1038300001480068704700005400002002E008C8FA
:10384000121F08C1002AFAD170477047002001E01A
:1038500001C1121F002AFBD1704700000149086016
:1038600070470000540000202DE9FF5F82B0002166
:10387000DDE90430020DDDF840B0034318D044F612
:103880001050A2F2FF3242431514119801281FD0A4
:10389000A5EB0B00401C5FEA000A4FF000064E4FFC
:1038A000DFF83891B046504615D5CAF1000413E050
:1038B000119801244AA3012801D16FEA0B01029853
:1038C000119AC0E90031C0E9024206B0BDE8F09F9C
:1038D000CBF10000DFE704460021404A491842EBE3
:1038E0000450CDE9001012E0E00707D032463B4615
:1038F00040464946FDF7B8FA8046894632463B467F
:1039000010461946FDF7B0FA06460F466410002C23
:10391000EAD1DDE90401DDE90023BAF1000F06DA9E
:10392000FDF7A2FA42464B46FDF79EFA05E0FDF789
:103930000DFB42464B46FDF709FB04460E460022AE
:10394000284BFDF78BFB03D84FF0FF30014607E013
:103950000022254B20463146FDF7DFF9FDF765FBD8
:10396000102409E0002C0ADB0A220023FCF74AFE9F
:10397000039B30321A55641E50EA0102F2D1641CD6
:10398000039AC4F111031444119A012A03D00122AD
:1039900008430DD10AE0084304D000204FF0110B7A
:1039A000119072E7A3EB0B056D1E0DE05B4504DD86
:1039B0004FF0000205F1010504E003DA4FF00002C8
:1039C000A5F10105002AECD002981199C0E9023155
:1039D000C0E9004579E70000000014400000F03F16
:1039E000300000000000F0430000E03F30380A28BB
:1039F00001D2012070470020704700002DE9FF4FE1
:103A000095B09B468946064600250FE2252877D1CA
:103A100000242746F84A0121059400E0044316F8E3
:103A2000013F203B01FA03F01042F7D130782A28F9
:103A300011D06FF02F033078A0F13002092A16D888
:103A4000059A44F0020402EB820203EB42021044A6
:103A5000761C0590EFE759F8042B0592002A03DA4B
:103A6000504244F40054059044F00204761C30782F
:103A70002E2816D116F8010F44F004042A280DD080
:103A80006FF02F023078A0F13003092B09D807EB33
:103A9000870302EB4303C718761CF3E759F8047B4E
:103AA000761C30786C280FD006DC4C2817D068289C
:103AB0000DD06A2814D104E0742810D07A280FD1D0
:103AC0000DE044F400140AE044F4801401E044F4EE
:103AD00040147278824202D104F58014761C761C60
:103AE000307866280BD013DC582877D009DC002802
:103AF00075D04528F6D04628F4D047281AD19DE144
:103B000018E0632835D0642879D0652812D195E172
:103B1000702873D008DC6728F1D069286FD06E2830
:103B20000DD06F2806D1B5E073282CD0752875D03C
:103B3000782874D05A46179990476D1C75E1C4F3E4
:103B40000250022809D003280DD0D9F8001004280B
:103B50000DD00D6009F1040967E1D9F80010EA17EA
:103B6000C1E90052F6E7D9F800100D80F2E70D70B8
:103B7000F0E719F8041B8DF8001000208DF8010003
:103B8000EA46012003E059F804AB4FF0FF3061072B
:103B90004FF0000102D40DE008F101018846B9425E
:103BA0000FDA8045F8DB1AF808100029F4D108E094
:103BB00008F1010188468142FADB1AF80810002951
:103BC000F6D105985B46A0EB080721463846179AC0
:103BD00000F094FA284400EB080507E04DE029E1E5
:103BE0000DE01AF8010B5A4617999047B8F10108F1
:103BF000F7D25B4621463846179A13E142E00A2283
:103C00000092C4F302524FF0000A022A08D059F879
:103C100004CB032A4FEAEC710AD00DE029E02AE038
:103C200009F1070121F00702F2E802C1914609E01B
:103C30000FFA8CFC4FEAEC71042A03D14FFA8CFC8A
:103C40004FEAEC71002907DA0A460021DCF1000C8A
:103C500061EB02012D2202E0220504D52B228DF812
:103C60000420012203E0E20701D02022F7E790467A
:103C700059E00A2102E010220DE010214FF0000A65
:103C800000910BE010224FF0000A44F004040827D2
:103C9000009203E008224FF0000A0092C4F302529F
:103CA000022A05D059F804CB0021032A08D009E0E4
:103CB00009F1070121F00702F2E802C1914605E08F
:103CC0001FFA8CFC042A01D10CF0FF0C4FF0000805
:103CD000220728D5702806D0009B83F0100353EAF2
:103CE0000A0305D00EE040228DF80420012208E0EE
:103CF0005CEA010206D030228DF804208DF8050020
:103D000002229046009B83F0080353EA0A030AD17B
:103D10005CEA010201D1620705D530228DF804204A
:103D20004FF001087F1E582804D034A003900EA83D
:103D300002900DE036A0F9E753466046009AFCF782
:103D400061FC84460398825C0298401E02900270D7
:103D50005CEA0100F0D1029806A9081A00F1200AD5
:103D6000600702D524F4803400E00127574502DDC6
:103D7000A7EB0A0000E0002000EB0A010090059884
:103D80004144401A0590E00306D45B462146179A49
:103D9000059800F0B3F90544002706E001A85A464B
:103DA000C05D179990476D1C7F1C4745F6DBE0030B
:103DB0000CD55B462146179A059800F09FF90544FB
:103DC00004E030205A46179990476D1C0099481E10
:103DD00000900029F5DC08E0029802995A46007824
:103DE000491C0291179990476D1CBAF10001AAF184
:103DF000010AF1DC65E100000928010030313233AD
:103E00003435363738396162636465660000000016
:103E10003031323334353637383941424344454600
:103E20000000000000F058F90544761C30780028A6
:103E30007FF4ECAD19B02846BDE8F08F620700D4DE
:103E4000062709F1070222F0070CFCE80223E146ED
:103E500003F000485FEA080C02D00FF2702C0DE06E
:103E60005FEA045C02D50FF2682C07E05FEAC47CCD
:103E700002D00FF2602C01E0AFF2700C4FF0FF386F
:103E800023F00043CDF850C065280CD006DC45284F
:103E900009D046281DD047283DD13DE0662818D0DE
:103EA00067287ED138E00021112F01DB112000E0CE
:103EB000781CCDE9000106A90EA8FFF7D5FCDDE9C5
:103EC0000F010E9A03910021009207F1010A04915B
:103ED0004DE04FF000400097CDE9011006A90EA873
:103EE000FFF7C2FCDDE90F0203920E9B119900223D
:103EF000DDF80CA00093049211B9791C00EB010AC3
:103F0000B7EB0A0004D4C0F1FF3007F1010A0490B6
:103F1000AAEB0700019044E0012F00DA01270021FD
:103F2000112F01DD112000E03846CDE9000106A97E
:103F30000EA8FFF799FCDDE90F010E9A039100210D
:103F400004910092BA4621070CD40399514500DA36
:103F50008A46BAF1010F05DD009AAAF10101515C10
:103F6000302908D0B84202DA10F1040F06DA012134
:103F7000CDE9011015E0AAF10101E9E7002805DC0F
:103F8000049901440491AAEB000102E0411C51454F
:103F900000DD8A460499401A401C01904FF0004011
:103FA0000290200704D40198504501DBCDF804802D
:103FB00000208DF84F0002980DF14F07B0F1004F2F
:103FC00025D02B200E9002984FF0020800280CDA22
:103FD000404202902D200E9007E00A210298FCF743
:103FE000FBFA3031029007F8011DB8F10001A8F189
:103FF0000108F2DC02980028EFD1791E0E980870B3
:10400000307800F0200040F0450007F8020D12A8BB
:10401000C01B00F107081498007800B1012000EBE4
:104020000A01019801EBE07105984144401A401ED5
:104030000590E00306D45B462146179A059800F0E8
:104040005DF805441498007818B15A4617999047BE
:104050006D1CE00324D55B462146179A059800F0B5
:104060004DF805441CE00498002807DBDDE9030156
:10407000884203DD0098405C179901E017993020D1
:104080005A469047049805F10105401C0490019898
:10409000401E019004D12E205A46179990476D1C5E
:1040A000BAF10001AAF1010ADDDC05E017F8010B05
:1040B0005A46179990476D1CB8F10001A8F1010804
:1040C000F4DC5B462146179A0598ABE62D0000000C
:1040D0002B000000200000002DE9F04104460025DF
:1040E0001E461746880404D405E039462020B04710
:1040F0006D1C641EF9D52846BDE8F0812DE9F0411C
:10410000044600251E469046C80301D5302700E02E
:104110002027880404D505E041463846B0476D1C89
:10412000641EF9D52846BDE8F0814A68002A06D009
:104130000A68531C0B6010704868401E4860704746
:104140000A68531C0B601070704700000249097820
:10415000622900D000BA704708000020024909789F
:10416000622900D040BA7047080000200248B0F829
:104170000018FCF728B80000FC1000200FB42DE94F
:10418000FF412E4C0025ADF80C5094F806082E4641
:1041900060B12BA34FF4C9722F4930A000F0D2FFB9
:1041A000681F04B0BDE8F0015DF814FB012084F83D
:1041B0000608FDF7B1FB07462A4884F80D58C4F8F5
:1041C0000808A0F80258D4F808080BA9A0F8065867
:1041D00084F80C580A9800F0C3FD00BF00F0B0F856
:1041E000FDF79AFBD4F80818C01BD1F808188842CC
:1041F0001BD903A800F050F8D4F80818BDF80C201B
:1042000019A3D1F80818CDE9002002914FF4D57216
:10421000114912A004F6080400F094FF6FF00106A3
:104220006671256004F8025C05E094F80C0801282A
:10423000D4D184F806583046B3E70000D8080020EF
:1042400053656E6420415420434D442052756E6E78
:10425000696E67210D0A0000DE6200084445425580
:1042600047000000FC1000206578656375746520C8
:10427000636F6D6D616E642028252E2A732920746A
:10428000696D656F757420282564207469636B738C
:1042900029210D0A000000000249498801800248D6
:1042A00070470000000000205800002070B54FF457
:1042B000006632460E490F4801F020FD0E4C0025E5
:1042C0003146A4F80468A4F80258601CFBF77BFF91
:1042D00084F8065884F80C58C4F81058A4F81458F8
:1042E000BDE8704005A33A2209490AA000F02ABFA0
:1042F000D8000020F0100020D808002061745F6909
:104300006E6974206973206F6B2E0D0A0000000027
:10431000AC6200084445425547000000074A4FF48C
:104320000063A2F80038A2F804080020A2F80608EA
:10433000C2F8081819461046FBF745BFFC100020CC
:10434000F8B500F0D7F900285FDD01F045F9354DEB
:1043500048B18268002A58D0B5F8021801B0681C2C
:10436000BDE8F0401047D5F80848002C4DD0B5F80E
:10437000020800262E54B4F80208B5F80228B4F852
:1043800000388118994210D22044691CFBF702FFC3
:10439000B4F80208B5F802180844A4F80208B4F802
:1043A0000608401CA4F806080CE0FD2085F80D085E
:1043B000B4F8000800901C4B4FF490721B491CA0ED
:1043C00000F0C0FE02221CA1681CFBF72CFF10B9F4
:1043D000B4F8040890B119A1681CFBF70BFFA8B949
:1043E000042218A1681CFBF71EFF78B1B4F8061868
:1043F000B4F80408814208D1002806D085F80D6879
:104400000120C5F8086885F80C08F8BDFF2085F87C
:104410000D080EA340F22D12044905A000F092FEF3
:10442000EEE70000D808002078650008C5620008A3
:1044300044454255470000004F4B00004552524F43
:10444000520000004641494C00000000675F617463
:104450005F696E666F2E726573705F7374617475D9
:1044600073204641494C0000F8B5142441F28835C8
:1044700040F6B83606E02846FDF734F9641E64B20B
:10448000002C07DD3346002213A117A000F01CFA10
:104490000028F0D1002C15D016A340F267121F4956
:1044A0001FA000F04FFE0CA000F0E0F940B10C306E
:1044B00000901DA34FF4B672184921A000F042FEEF
:1044C0000020F8BD20A34FF4B172144914A000F0ED
:1044D00039FE4FF0FF30F8BD2B4347504144445262
:1044E0003A20312C0000000041542B4347504144F6
:1044F000445200003C2D2D20476574206C6F636191
:104500006C495041646472657373207375636365AD
:10451000737366756C6C79202D2D3E00B7630008AF
:1045200044454255470000003C2D2D20676574200E
:104530006C6F63616C49503A202573202D2D3E002D
:10454000494E464F000000003C2D2D206765742029
:104550006C6F63616C49504164647265737320666B
:1045600061696C6564202D2D3E0000002DE9F0414D
:1045700000240A2541F28837661E40F6B83810E05C
:104580003B46002209A10AA000F09EF928B90BA021
:1045900000F06CF908B1002405E034464046FDF710
:1045A000A1F86D1EECD22046BDE8F0814F4B000013
:1045B00041542B4350494E3F000000002B435049CB
:1045C0004E3A205245414459000000002DE9FE4377
:1045D000054632A00024006802904FF47A73224608
:1045E0002FA130A000F070F947B24FB12DA0CDE956
:1045F00000072FA3A222394939A000F0A3FD4BE008
:104600006FF0030895B138212846FBF7DCFD36A092
:1046100000F02CF9060009D035A3B4222F4930A0B0
:10462000009600F08FFD02A9304631E04046BDE81B
:10463000FE83641CE4B2032C08D0042C0AD0052CA1
:1046400017D0082C1BD00B2C1DD01FE0FBF782FFCE
:10465000A8601BE005F10C000A218046FBF7B3FDC2
:104660003046FBF7D9FD821E711C4046FBF792FDD8
:104670000CE000F091FBFBF793FFA86106E0FBF76D
:1046800069FF686202E0FBF765FF286302A900206A
:10469000FBF7E6FD0600CCD13846C8E72C00000049
:1046A0004F4B000041542B51454E473D3000000018
:1046B000636865636B5F73656E645F636D643A2006
:1046C0002573206973206572726F722C7265737521
:1046D0006C743A2025642021000000006663000805
:1046E000494E464F000000002B51454E473A2000EE
:1046F000257300002DE9FC470024DFF8C4908DF8F5
:1047000004404D462646A0462746B9F80418681CC2
:10471000FBF759FDA5F8026800F056FF294D18B1C6
:104720000120287001F0EEFB2878012803D04FF01B
:10473000FF30BDE8FC87244801F0B0FAB0B14D4627
:10474000214801F0ABFAA8B3012201A91E4801F0EB
:10475000B0FAB5F80408A0420CD929199DF8040054
:10476000641C4870A4B2A5F8024804E02E706FF0F3
:104770000500DEE701279DF804000A2802D1B8F100
:104780000D0F02D000F028FFA8B19FB1B5F80408C2
:1047900000902C460D4BEE220D490EA000F0D2FCED
:1047A000B4F80418601CFBF70EFDA4F802686FF063
:1047B0000200BEE702E09DF80480C1E72046B8E7AA
:1047C000D808002000000020F0100020CC65000870
:1047D000B46200084445425547000000F8B5104C4B
:1047E000064627460125B7F80608B04200D38EB921
:1047F0000CA34FF4E4721A491AA0009600F0A2FC30
:104800000CE0AE4220460AD0FBF706FD6D1C0444C6
:10481000ADB2641CB7F80608A842F2D20020F8BD79
:10482000FC100020415420726573706F6E73652018
:10483000676574206C696E65206661696C656421CA
:1048400020496E70757420726573706F6E73652089
:104850006C696E6528256429206572726F7221006B
:10486000EA62000844454255470000002DE9F04146
:104870000C4C0746012526460CE039462046FBF73E
:10488000B9FC002820460AD1FBF7C6FC6D1C044485
:10489000ADB2641CB6F80608A842EED20020BDE80E
:1048A000F0810000FC1000200FB410B5FFF7DEFF10
:1048B00030B104AA0399FBF703FD10BC5DF814FBAB
:1048C0004FF0FF30F9E70000F0B5A1B00D46044607
:1048D0001E461746802101A8FBF775FC3146384675
:1048E000FFF71CFD1AA34FF410721D491DA0009480
:1048F00000F028FC2046FFF741FC040007D51BA36D
:1049000040F24522164917A000F01CFC12E000F00E
:10491000A9F9D5B101AA22A12846FFF7C5FF0028B1
:104920000BDC20A340F251220D4922A000F00AFC2A
:104930004FF0FF34FFF71AFC07E000241FA340F2FA
:10494000592207491BA000F0FDFB21B02046F0BD15
:1049500073656E642041543A25730D0A000000000F
:104960000D630008494E464F0000000073656E64F9
:1049700020415420636F6D6D616E647320666169C0
:104980006C6564206F722077616974207265737042
:104990006F6E73652074696D656F7574210D0A0003
:1049A0002573000023203E5F3C204661696C6564EE
:1049B0000D0A0000444542554700000023205E5F79
:1049C0005E207375636365737365640D0A00000090
:1049D0000A4601464FF0FF330148FEF753B9000085
:1049E000DC1B002010B590B002460CA102A8FEF717
:1049F0008BFE0D4B00220DA102A8FFF765FF44B20C
:104A000044B102A8CDE9000409A34322134914A02C
:104A100000F098FB10B0204610BD000041542B431D
:104A200046554E3D25640000905F01004F4B00004D
:104A3000636865636B5F73656E645F636D643A2082
:104A40002573206973206572726F722C726573759D
:104A50006C743A20256420210000000036630008B1
:104A6000494E464F000000007CB50020FFF7BAFF1A
:104A700004004FF0000502D011A3552217E04FF4B7
:104A80007A73002214A115A0FFF71EFF44B23CB1B7
:104A900012A0CDE9000415A35B221F491FA00AE064
:104AA0000120FFF79FFF040008D005A36122CDE994
:104AB0000054194919A000F045FB20467CBD0000B8
:104AC00061742B6366756E3D25642C726573756C1D
:104AD000743A2564000000004F4B000041542B51F4
:104AE000435345415246434E3D3000006368656381
:104AF0006B5F73656E645F636D643A202573206934
:104B000073206572726F722C726573756C743A20C3
:104B1000256420210000000042630008494E464FF2
:104B20000000000010B590B002460DA102A8FEF7EB
:104B3000EBFD4FF47A7300220CA102A8FFF7C4FE2C
:104B400044B24CB102A8CDE9000409A34FF4857228
:104B5000124913A000F0F6FA10B0204610BD000074
:104B600041542B5153434C4B3D2564004F4B0000A7
:104B7000636865636B5F73656E645F636D643A2041
:104B80002573206973206572726F722C726573755C
:104B90006C743A2025642021000000008263000824
:104BA000494E464F000000002DE9F04780460E4672
:104BB000002001E0401C80B2B042FBD3284C6FF0D3
:104BC0000309B4F8140888B3C5002846FEF708FEA8
:104BD00007003FD02A46D4F81018FBF7DBFA05F19E
:104BE0000801D4F8100801F023F8C4F8100880B3C5
:104BF0002A463946FBF7CEFAB4F814280423D4F831
:104C0000101803EBC20241F80280B4F81418D4F86B
:104C1000100840F83160B4F81408401CA4F81408D7
:104C20003846FEF7AFFD0020BDE8F087FFE708211A
:104C30000120FBF737FBC4F8100858B1C0F8048016
:104C4000D4F810080660B4F81408401CA4F814083E
:104C5000E9E701E04846E7E73846FEF793FDF9E764
:104C6000D80800202DE9FC41012440F2E716B71CCA
:104C70000E4D14E02046FFF7B1FD40B1CDE90040F4
:104C80000BA33246104911A000F05CFA05E011A315
:104C90003A460D490DA000F055FA641CA4B2B5F8CF
:104CA0000608A042E6D2BDE8FC810000FC1000200E
:104CB0006C696E6520256420627566666572203AAF
:104CC0002025730D0A000000FB6200084445425590
:104CD000470000005061727365206C696E65206248
:104CE0007566666572206572726F72210D0A00002A
:104CF0001CB54FF47A73002208A109A0FFF7E4FD68
:104D000044B244B106A0CDE9000407A32E22114904
:104D100011A000F017FA20461CBD00004F4B000008
:104D20004154453000000000636865636B5F736544
:104D30006E645F636D643A20257320697320657229
:104D4000726F722C726573756C743A202564202121
:104D50000000000025630008494E464F0000000097
:104D600010B50B46024680210848FEF7E1FC084CCE
:104D700008A160800548FBF731FA6088801C81B289
:104D800061800248FFF724FE608810BD58000020B3
:104D9000000000200D0A000030B583B00446FEF785
:104DA00047FD05460020CDE9000002462146684641
:104DB000FBF711FF2846FEF751FDDDE9000103B0C6
:104DC00030BD00002DE9F04100250A244FF47A7629
:104DD00040F6B83706E03046FCF784FC641E64B247
:104DE000002C07DD3B46002209A10AA0FFF76CFD5D
:104DF0000028F0D144B908A34FF48772104911A0DC
:104E000000F0A0F94FF0FF352846BDE8F081000022
:104E10004F4B0000415400003C2D2D20636F6E6EFF
:104E2000656374696F6E2062633235206D6F6475DF
:104E30006C65206661696C656421202D2D3E000043
:104E400048640008444542554700000010B5FFF78C
:104E50002DFABDE8104004210148FFF7A5BE00006F
:104E6000C86300081CB541F28833002208A109A0DC
:104E7000FFF72AFD44B24CB106A0CDE9000409A316
:104E80004FF4B272124913A000F05CF920461CBD29
:104E90004F4B000041542B4E434450434C4F53451D
:104EA00000000000636865636B5F73656E645F6339
:104EB0006D643A202573206973206572726F722CBD
:104EC000726573756C743A2025642021000000001F
:104ED00080640008444542554700000010B590B07A
:104EE0000B4602460CA102A8FEF70EFC40F6B833B2
:104EF00000220EA102A8FFF7E7FC44B24CB102A8C1
:104F0000CDE900040AA340F25312144914A000F0A2
:104F100019F910B0204610BD41542B4E4344504F58
:104F200050454E3D222573222C2564004F4B000036
:104F3000636865636B5F73656E645F636D643A207D
:104F40002573206973206572726F722C7265737598
:104F50006C743A2025642021000000006F64000872
:104F6000444542554700000070B5C4B034A8FFF76F
:104F70002DFB37A8FBF7EEFA0646409D369C3A9883
:104F8000FBF7F5FA3D9ACDE900560146234642A8C3
:104F900000F048FFDDE942046421C0F34E020091B5
:104FA00023460EA102A8FEF7AFFB40F6B83300225D
:104FB0000FA102A8FFF788FC45B24DB102A8CDE9C8
:104FC00000050CA340F28712154916A000F0BAF8AC
:104FD0002046FEF7D7FB44B0284670BD41542B4E07
:104FE0004D47533D25642C25732C2564000000009B
:104FF0004F4B0000636865636B5F73656E645F634E
:105000006D643A202573206973206572726F722C6B
:10501000726573756C743A202564202100000000CD
:1050200092640008444542554700000010B590B016
:1050300002460DA102A8FEF767FB40F6B833002236
:105040000CA102A8FFF740FC44B24CB102A8CDE984
:10505000000409A340F23D12124913A000F072F8B7
:1050600010B0204610BD000041542B4E4E4D493D1E
:10507000256400004F4B0000636865636B5F7365D8
:105080006E645F636D643A202573206973206572D6
:10509000726F722C726573756C743A2025642021CE
:1050A00000000000626400084445425547000000CB
:1050B00070B5164D4FF47A744FF4804601281CD019
:1050C000002822D1002231462846FCF720FC204649
:1050D000FCF708FB0122D60331462846FCF717FCF3
:1050E0002046FCF7FFFA002231462846FCF70FFC69
:1050F0002046BDE87040FCF7F5BA0020FFF772FCCF
:105100002046FCF7EFFA0122EEE770BD000C0140EB
:1051100070B501220A4D540321462846FCF7F7FBDF
:105120004FF47A70FCF7DEFA002221462846FCF79D
:10513000EEFBBDE8704040F6B830FCF7D3BA000093
:10514000000C01400FB4F8B514460D4606460AABF4
:105150004FF400710748099AFEF7EAFA05480090F3
:1051600023462A46314604A0FEF7BEFAF8BC5DF895
:1051700014FB0000081900205B202573205D5B20D4
:10518000257328293A253034645D2025730A0000F0
:1051900008B504A300903922034904A0FFF7D2FF09
:1051A00008BD000025730000F8630008444542551F
:1051B000470000002DE9F84F5E4908780D2872D0AD
:1051C0005D4C0025E279824200D0A5710C220A26AE
:1051D0000127227089464FF47A7A4FF008080B288D
:1051E0007ED2DFE800F07D06083F26584A61618ADA
:1051F0007C00277074E0A179481CA071032904D3B6
:10520000A5714EA34FF4FB7282E0FFF72DFC30B185
:105210002770A07955A34FF40272009084E0042017
:1052200020705DA340F20122644965A0FFF78AFF68
:10523000EFE765A340F20D22604961A0FFF782FF0E
:105240006570A079411CC9B2A171032804D3A5716E
:1052500064A340F213225BE026706EA340F21E228C
:10526000009161E075A340F22322544954A0FFF756
:1052700069FF5046FCF736FA32E079A34FF40A7220
:105280004E494FA0FFF75EFF65705046FCF72AFAC3
:1052900084F8008024E07AA34FF40C72474948A0B8
:1052A000FFF750FF1CE021E0A570072802D0082876
:1052B0000CD015E078A340F23922404940A0FFF716
:1052C00041FF0B202070E570257109E084F8008013
:1052D000A079411CC9B2A171032809D3A571267018
:1052E00099F80010E1710D2189F80010BDE8F88FE0
:1052F00070A340F24A22009116E0A079411CC9B285
:10530000A17103280BD3A571277074A340F2552215
:105310002A492BA0FFF716FF642000F04FFA2670F1
:105320007AA34FF418720091244925A0FFF70AFFD1
:10533000D6E700000C0000202400002020616363F9
:10534000657373206661696C7572652C206D6F647E
:10535000756C6520726561647920666F7220646582
:105360006570736C65657021000000003C2D2D2078
:105370006F6320616363657373206E6574203C20E6
:105380002564203E2074696D6573206661696C2117
:10539000202D2D3E0D0A0000206672657175656E28
:1053A000637920636C656172616E636520737563F8
:1053B0006365737366756C2100000000C2640008A9
:1053C000494E464F000000003C2D2D206F632063A6
:1053D0006F6E6E656374206661696C21202D2D3EB1
:1053E0000D0A0000206E6364706F70656E20666148
:1053F000696C65642C206D6F64756C6520726561E5
:10540000647920666F722064656570736C65657081
:10541000210000003C2D2D206F6320636F6E6E65B0
:105420006374203C202564203E2074696D657320E0
:105430006661696C21202D2D3E0D0A003C2D2D202A
:105440006F6320636F6E6E656374696F6E20737532
:10545000636365737321202D2D3E0D0A000000004B
:105460003C2D2D206F6320737562736372696265D2
:10547000207375636365737321202D2D3E0D0A0023
:1054800020696D706F737369626C6520746F20683A
:10549000617070656E2120003C2D2D206F6320739C
:1054A000656E64207375636365737321202D2D3ED3
:1054B0000D0A00003C2D2D206F632073656E642063
:1054C0003C202564203E2074696D65732066616907
:1054D0006C21202D2D3E0D0A000000002073656E0A
:1054E000642064617461206661696C2C206D6F6456
:1054F000756C6520726561647920666F72206465E1
:105500006570736C65657021000000003C2D2D20D6
:105510006F63206E6F20757263203C202564203EEF
:105520002074696D6573206661696C21202D2D3EA4
:105530000D0A000013B54FF6FF73012269460248B9
:10554000FDF7A0FB00981CBD9C1B00202DE9F74F28
:105550004FF000088B460700C2464546444631D00E
:105560003846FAF759FE06461AE0385D2C2816D15F
:10557000A4EB0A010298A1EB0809CA4440450BD1EB
:105580005FEA09001CD0024679195846FAF702FE74
:1055900000200BF8090012E008F10108651C641CEA
:1055A000B442E2D3029840450CD1AE420AD0721BFD
:1055B00079195846FAF7EEFD00200BF80600012095
:1055C000BDE8FE8F0020FBE70248008800F40040A1
:1055D00070470000040000202DE9F05F2448D0F857
:1055E0001018E9B300F1010BB0F8029800248246CC
:1055F00032E0002528E000BF00EBC40005EB4501C8
:10560000406800EB81063068FAF706FE1FFA80F862
:105610007068FAF701FE87B208EB0701494511D817
:10562000B8F1000005D0024658463168FAF708FE86
:1056300040B9D7B10BEB0900C01B3A467168FAF7C5
:10564000FFFD90B16D1CADB2DAF8100850F83410BF
:10565000A942D1D8641CA4B2BAF81418A14200E03F
:1056600000E0C6D80020BDE8F09F3046FBE7000010
:10567000D80800202DE9F0410B3020F00706104D2E
:1056800019E02068B04215D3B0420AD9871B201D0B
:10569000D4F80480FAF77EFDA019C0E900782860EC
:1056A00004E060682860201DFAF774FD201D266064
:1056B000BDE8F081251D2C68002CE2D10020F7E721
:1056C0004C000020FCF736F9FDF700FEFDF748FB23
:1056D000FDF762FCFDF782FCFDF79CFCFDF726FC64
:1056E000FDF7ECFBFFF7B2FB1348FCF7FBFF0122D1
:1056F00012491348FDF78AFA12A39322174918A0FA
:10570000FFF720FD18484168C943890706D401689E
:1057100041F00801016015A3992201E01DA39E221A
:105720000E4924A0FFF70EFD00F004FCFEF708FE72
:10573000FFF740FDF8E700001C1B00202C000020B4
:10574000DC1B002061745F636F6D706F6E656E743B
:105750002072756E696E672E2E2E00009F64000801
:10576000494E464F00000000007000400A20546877
:10577000652073797374656D206973207374616E2D
:10578000646279206D6F64652072657374617274F0
:10579000210A00000A207468652073797374656DAE
:1057A00020697320706F7765726564206F6E210ABF
:1057B0000000000044454255470000001FB5044664
:1057C0004DA34FF4D472524952A0FFF7BBFC012005
:1057D000FFF76EFC002203A95048FCF7D5FC9DF8AA
:1057E0000C0000904EA340F2AD12494949A0FFF7CA
:1057F000A9FC9DF80D0000904DA34FF4D7724449C9
:1058000044A0FFF79FFC9DF80E0000904CA340F2CF
:10581000AF123F493FA0FFF795FC9DF80C109DF893
:105820000D00C1EB011100EB81009DF80E10C0EBE3
:10583000001001EB80000021029120444FF46161CF
:10584000B0FBF1F28DF80420B0FBF1F201FB120382
:105850003C22B3FBF2F38DF80530B0FBF1F301FB12
:105860001300B0FBF2F102FB11008DF806000122DB
:1058700001A92A48FCF768FD9DF80400009028A3C0
:105880004FF4DE72224923A0FFF75CFC9DF805006F
:10589000009027A340F2BD121D491EA0FFF752FC45
:1058A0009DF80600009026A34FF4DF72184919A056
:1058B000FFF748FC4FF48070FCF7CAF824480168F1
:1058C00041F004010160FCF7D7F822A340F2C512B1
:1058D0000F4910A0FFF736FC234D244E4FF4967469
:1058E0002046FBF7FFFE20212846FCF709F820217F
:1058F0003046FCF705F8F3E7656E74657220646561
:105900006570736C656570203C313E2000000000BE
:10591000AF640008494E464F00000000081B0020FD
:10592000486F757273202020203C25643E000000E3
:105930004D696E7574657320203C25643E0000003F
:105940005365636F6E647320203C25643E00000045
:1059500000700040656E7465722064656570736CDC
:10596000656570203C323E00000C0140001801408B
:1059700010B5B6B00446009034A34D22354936A088
:10598000FFF7E0FB00221DA92046FFF7DFFD1DA861
:10599000009033A350222F492FA0FFF7D3FB012201
:1059A00001A92046FFF7D2FD01A8009030A35322A1
:1059B000284929A0FFF7C6FB1AA90DF1120000F033
:1059C000E9F9002840D12EA35822224922A0FFF74E
:1059D000B9FB9DF86800009037A359221D491EA00D
:1059E000FFF7B0FB9DF86900009037A35A221949D0
:1059F00019A0FFF7A7FB9DF86A00009035A35B2272
:105A0000144915A0FFF79EFB9DF86B00009036A38C
:105A10005C22104910A0FFF795FB9DF86C000090E8
:105A200035A35D220B490CA0FFF78CFB1C9800905E
:105A300036A35E22074908A0FFF784FB10A35F226C
:105A4000044905A0FFF77EFB36B010BD64617461A8
:105A50003A25730021640008494E464F00000000BB
:105A60007465737464617461313A202573000000B9
:105A70007465737464617461323A202573000000A8
:105A80002A2A2A2A2A2A2A2A2A2A2A2A2A2A2A2A76
:105A90002A2A2A2A2A2A2A2A2A2A2A2A2A2A2A2A66
:105AA0002A2A2A2A2A2A2A2A2A2A2A2A2A2A2A2A56
:105AB0002A2A2A2A2A2A2A006F6E6F66665F737462
:105AC0006174653A202564006D6F64653A20256431
:105AD0000000000063757272656E745F73706565B7
:105AE000643A20256400000066616E5F75705F6433
:105AF0006F776E3A2025640066616E5F6C65667430
:105B00005F72696768743A202564000074656D707F
:105B1000657261747572653A202564001CB501AA2E
:105B20001BA1FAF7E5FB019800901CA36D22244904
:105B300024A0FFF707FB01982449421C0C2A14D229
:105B4000DFE802F006060613061A1A1313131323CE
:105B500060B101280CD05AB103280BD000901CA3CF
:105B60008722174920A0FFF7EDFA1CBD032008E0AB
:105B7000042006E0062004E0042804D00528F4D11F
:105B8000082008701CBD0720FBE70A20F9E7000089
:105B9000252A5B5E205D2025640000003C2D2D2021
:105BA0002B514C57455654494E442076616C7565CF
:105BB000203A3C25643E202D2D3E0D0A00000000B9
:105BC0003264000844454255470000000C000020A4
:105BD0003C2D2D206F63206F746865723A3C2564FC
:105BE0003E202D2D3E0D0A00494E464F000000007C
:105BF00031B5FFF7E9FC002811D10B4C2088B0F536
:105C0000006F0DD200F070F9208808B900F074F927
:105C100001226946054800F07FF800F0F3F838BD2E
:105C200000F0F8F838BD000004000020F01000205B
:105C30002DE9F04704008A4616D054F8047CD4F8C5
:105C400000903E1F564500D956462046FDF79AFD66
:105C500005468846324621465046FFF70BFD40B1C7
:105C6000C0F80090BDE8F087BDE8F0470846FDF7B2
:105C7000B7BD44E9017955B129686A18211F8A42E4
:105C800002D9611B091F2960C5F80480EAE7024AAE
:105C9000C2F80080E6E700004C0000208188C2883E
:105CA00000898A1A104490FBF1F201FB120080B2C5
:105CB000704770B516460D460346C488FFF7EEFFE1
:105CC000864200D23046B8B100220BE01968095D67
:105CD000A954521C9988641CB4FBF1F601FB1641CF
:105CE00092B28CB28242F1D1D98808449988B0FB33
:105CF000F1F201FB1200D880002070BD48B141B123
:105D0000016022F0030181800021C18001810846E9
:105D100070474FF0FF3070472DE9F0410F460446C1
:105D200081880089E388081A401E80B20344B3FBCF
:105D3000F1F501FB1533934205D8E2880244B2FB2A
:105D4000F1F301FB1322401C86B22189206895B231
:105D50000844B54201D22A4600E032463946FAF7F5
:105D600019FAAE4204D2AA1BB9192068FAF712FA3E
:105D70002089A1882844B0FBF1F201FB12002081A8
:105D80002846BDE8F0810000014908707047000016
:105D90000C00002070B50D460446FAF73DFA0646A1
:105DA000002028606860A860012221462846FDF78F
:105DB00063FAA41C01222146681CFDF75DFAA41CAD
:105DC00001222146A81CFDF757FAA41C01222146F6
:105DD000E81CFDF751FAA41C01222146281DFDF7FD
:105DE0004BFAA11C042205F10800FDF745FAA8684A
:105DF000FEF7ACF9A860122E01DA042070BD002075
:105E000070BD000002480188491C018070470000F5
:105E1000040000200248018841F4004101807047DD
:105E2000040000200FB42DE9F8438046322060F3CF
:105E30000F0614243320FDF7D3FC05463321FAF76F
:105E4000C2F90998FEF782F909900A98FEF77EF9DF
:105E50000A900B98FEF77AF90B900C98FEF776F9FA
:105E60000C900D98FEF772F91EA10D9009882980FB
:105E7000AF1C0220FEF772F9ADF80000022269465D
:105E80003846FCF753FF20463F1DFEF767F9ADF893
:105E90000000022269463846FCF748FF3C1D0422F8
:105EA00009A92046FCF742FF083404220AA920462B
:105EB000FCF73CFF083404220BA92046FCF736FF10
:105EC000083404220CA92046FCF730FF04F1080036
:105ED00004220DA9FCF72AFFC8E90065BDE8F80314
:105EE0005DF814FB30320000024900200968486266
:105EF000704700005C1B00200148FCF7F3BB00006A
:105F00005C1B00200149002008807047040000202D
:105F100008B504A300904122034904A0FFF712F939
:105F200008BD0000257300000E640008444542557A
:105F3000470000002DE9F8436F4C617920788142D9
:105F400006D000906DA3EE22714972A0FFF7FAF817
:105F50002078072602270125DFF8C0814FF00009CD
:105F60000C2811D2DFE800F00611172D34C440537D
:105F700081C4AFBF6AA3F422654966A0FFF7E2F8C7
:105F80000020FFF795F82770B2E0FFF7C1F82770FF
:105F900068A3FD229DE0FEF715FF10B9FEF7A8FEED
:105FA00008B12570A4E068A340F2091258496DA019
:105FB000FFF7C8F80020FEF7B5FD0028E4D1032064
:105FC00095E0FEF7D3FA08B101206AE004208EE0E4
:105FD000FEF74AFA30B10220FFF7D6FE63A34FF472
:105FE000937276E0062082E00120FFF71FF820B1CF
:105FF0004FF47A70FBF776FB7AE0267065A34FF4D6
:106000009F72434943A00095FFF79CF870E06078C9
:1060100070B1FBF781FCE168411A414568D9052060
:10602000FFF7B2FE84F8019066A340F25F1250E0E1
:106030006B48008A81B26A48FEF750FF30B10420F5
:10604000FFF7A2FE67A34FF4AA7242E06570FBF768
:1060500063FCE06069A340F24D122D492DA0FFF7CB
:1060600071F86EA34FF4A77233E0A07870B1FBF71C
:1060700053FCE168411A41453AD90520FFF784FEF7
:1060800084F802904FA34FF4BE7222E0FEF76CFF3B
:1060900050B169A34FF4B8721D491EA0FFF752F822
:1060A0000820FFF771FE23E0A570FBF735FCE060E8
:1060B00066A340F26B12164916A0FFF743F868A3D7
:1060C0004FF4B67205E0FEF7CDFE38B16AA34FF487
:1060D000C6720F490FA0FFF735F809E026706CA3D0
:1060E0004FF4C472F5E72079012801D1082020700F
:1060F00020786071BDE8F88324000020675F6F633B
:106100005F73746174653A203C25643E00000000B2
:10611000A4640008494E464F00000000D0FB010077
:106120006D6F64756C6520706F776572206B657933
:106130002E2E2E006D6F64756C6520726573746110
:1061400072742E2E2E0000006263323520636F6E53
:106150006E656374207375636365737366756C6CC9
:106160007921000044454255470000006D756C746C
:1061700069706C6520726571756573747320666FE4
:106180007220616363657373206661696C65642165
:1061900000000000636F6E66696775726174696FF5
:1061A0006E20646174612072656365697665206D37
:1061B0006F64655B25645D207375636365737366E7
:1061C000756C21006F70656E206F6320757263209F
:1061D0006E6F74207265706F7274656421000000C8
:1061E0001000002073656E64206E6364706F7065CC
:1061F0006E206661696C0D0A0000000073656E64B4
:10620000206E6364706F70656E2073756363657371
:106210007366756C6C790D0A000000006177616926
:1062200074696E67206E6364706F70656E2075723E
:10623000632E2E2E0D0A00006F632061742073659B
:106240006E64206661696C210000000073656E64F5
:10625000206461746120746F206F6321000000006E
:106260006177616974696E67206E6D6773207572FE
:10627000632E2E2E0D0A0000206F6320636F6E6E5A
:1062800065637420636C6F7365206661696C2100BF
:10629000206F6320636F6E6E65637420636C6F7331
:1062A00065207375636365737321000061745F69B2
:1062B0006E69740061745F726563765F72656164B4
:1062C0006C696E650061745F706172736572006104
:1062D000745F73656E645F6D6F64756C6500617487
:1062E0005F657865635F636D640061745F72657399
:1062F000705F6765745F6C696E650061745F736879
:106300006F775F726573705F696E666F0061745F4F
:1063100073656E645F636D640061745F7365745F61
:10632000717273740061745F7475726E5F6F66660C
:106330005F6563686F0061745F7365745F63667542
:106340006E0061745F7365745F636C65616E5F6638
:1063500072657175656E63790061745F71756572E0
:10636000795F6373710061745F71756572795F71D4
:10637000656E670061745F71756572795F636773DD
:106380006E0061745F7365745F7173636C6B006141
:10639000745F7365745F6370736D730061745F73B2
:1063A00065745F6365647278730061745F736574AC
:1063B0005F71706F77640061745F71756572795F8A
:1063C00063677061646472001466000810660008F8
:1063D0001D5B00082066000810660008715900085F
:1063E000286600081066000891510008346600080D
:1063F00010660008115F000864656570736C656560
:10640000705F7572635F68616E646C65720077615E
:106410006B6575705F7572635F68616E646C6572E1
:10642000006E6E6D695F7572635F68616E646C6546
:106430007200716C77657674696E645F7572635F04
:1064400068616E646C657200626332355F636F6EA3
:106450006E65637400626332355F6F635F6E63669F
:106460006700626332355F6F635F6E6E6D690062F5
:106470006332355F6F635F6E6364706F70656E006B
:10648000626332355F6F635F6E636470636C6F73FA
:106490006500626332355F6F635F6E6D6773006DB9
:1064A00061696E00776F726B5F7374617465006D04
:1064B00063755F6C6F775F706F7765725F6D6F6428
:1064C0006500657863657074696F6E5F6576656E8B
:1064D000745F63616C6C6261636B000000000000BC
:1064E0000000000102030406070809000000000183
:1064F0000203040040404040404040404041414190
:106500004141404040404040404040404040404089
:106510004040404005020202020202020202020260
:10652000020202022020202020202020202002021F
:1065300002020202029090909090901010101010A1
:106540001010101010101010101010101010100259
:1065500002020202028888888888880808080808D9
:1065600008080808080808080808080808080802B1
:1065700002020240F464000852656164207265738F
:10658000706F6E73652062756666657220666169FC
:106590006C65642E2054686520526573706F6E734D
:1065A00065206275666665722073697A6520697315
:1065B000206F7574206F6620627566666572207341
:1065C000697A6528256429210000000072656164EC
:1065D000206C696E65206661696C65642E20546864
:1065E00065206C696E652064617461206C656E67FE
:1065F0007468206973206F7574206F6620627566F9
:106600006665722073697A65282564292100000077
:106610000D0A00002B514C57455654494E443A0040
:106620002B4E4E4D493A00002B514154534C454599
:10663000503A00002B51415457414B4555503A00B8
:106640006066000800000020580000003C38000888
:10665000B866000858000020C82700004C38000821
:1066600000000000000000006C3F3F620D000000D1
:106670003138302E3130312E3134372E3131350032
:106680003316000000000000000B000000000000B6
:1066900000000000010000001000000000000000E9
:1066A0000024F400000000000000000000000000D2
:0866B0000000000000000000E2
:0400000508000131BD
:00000001FF
